{
  "_format": "hh-sol-artifact-1",
  "contractName": "ReflektorNFT",
  "sourceName": "contracts/ReflektorNFT.sol",
  "abi": [
    {
      "inputs": [
        {
          "internalType": "string[]",
          "name": "_letters",
          "type": "string[]"
        },
        {
          "internalType": "string",
          "name": "_baseURI",
          "type": "string"
        }
      ],
      "stateMutability": "nonpayable",
      "type": "constructor"
    },
    {
      "anonymous": false,
      "inputs": [
        {
          "indexed": true,
          "internalType": "address",
          "name": "owner",
          "type": "address"
        },
        {
          "indexed": true,
          "internalType": "address",
          "name": "approved",
          "type": "address"
        },
        {
          "indexed": true,
          "internalType": "uint256",
          "name": "tokenId",
          "type": "uint256"
        }
      ],
      "name": "Approval",
      "type": "event"
    },
    {
      "anonymous": false,
      "inputs": [
        {
          "indexed": true,
          "internalType": "address",
          "name": "owner",
          "type": "address"
        },
        {
          "indexed": true,
          "internalType": "address",
          "name": "operator",
          "type": "address"
        },
        {
          "indexed": false,
          "internalType": "bool",
          "name": "approved",
          "type": "bool"
        }
      ],
      "name": "ApprovalForAll",
      "type": "event"
    },
    {
      "anonymous": false,
      "inputs": [
        {
          "indexed": true,
          "internalType": "address",
          "name": "previousOwner",
          "type": "address"
        },
        {
          "indexed": true,
          "internalType": "address",
          "name": "newOwner",
          "type": "address"
        }
      ],
      "name": "OwnershipTransferred",
      "type": "event"
    },
    {
      "anonymous": false,
      "inputs": [
        {
          "indexed": false,
          "internalType": "address",
          "name": "sender",
          "type": "address"
        },
        {
          "indexed": false,
          "internalType": "uint256",
          "name": "tokenId",
          "type": "uint256"
        },
        {
          "indexed": false,
          "internalType": "uint256",
          "name": "letterIndex",
          "type": "uint256"
        }
      ],
      "name": "ReflektorNFTMinted",
      "type": "event"
    },
    {
      "anonymous": false,
      "inputs": [
        {
          "indexed": true,
          "internalType": "address",
          "name": "from",
          "type": "address"
        },
        {
          "indexed": true,
          "internalType": "address",
          "name": "to",
          "type": "address"
        },
        {
          "indexed": true,
          "internalType": "uint256",
          "name": "tokenId",
          "type": "uint256"
        }
      ],
      "name": "Transfer",
      "type": "event"
    },
    {
      "inputs": [
        {
          "internalType": "address",
          "name": "to",
          "type": "address"
        },
        {
          "internalType": "uint256",
          "name": "tokenId",
          "type": "uint256"
        }
      ],
      "name": "approve",
      "outputs": [],
      "stateMutability": "nonpayable",
      "type": "function"
    },
    {
      "inputs": [
        {
          "internalType": "address",
          "name": "owner",
          "type": "address"
        }
      ],
      "name": "balanceOf",
      "outputs": [
        {
          "internalType": "uint256",
          "name": "",
          "type": "uint256"
        }
      ],
      "stateMutability": "view",
      "type": "function"
    },
    {
      "inputs": [],
      "name": "checkIfUserHasNFT",
      "outputs": [
        {
          "components": [
            {
              "internalType": "uint256",
              "name": "letterIndex",
              "type": "uint256"
            },
            {
              "internalType": "uint256",
              "name": "tokenId",
              "type": "uint256"
            },
            {
              "internalType": "string",
              "name": "letter",
              "type": "string"
            },
            {
              "internalType": "string",
              "name": "metadataURI",
              "type": "string"
            },
            {
              "internalType": "uint256",
              "name": "price",
              "type": "uint256"
            }
          ],
          "internalType": "struct ReflektorNFT.LetterAttributes",
          "name": "",
          "type": "tuple"
        }
      ],
      "stateMutability": "view",
      "type": "function"
    },
    {
      "inputs": [],
      "name": "getAllDefaultLetters",
      "outputs": [
        {
          "components": [
            {
              "internalType": "uint256",
              "name": "letterIndex",
              "type": "uint256"
            },
            {
              "internalType": "uint256",
              "name": "tokenId",
              "type": "uint256"
            },
            {
              "internalType": "string",
              "name": "letter",
              "type": "string"
            },
            {
              "internalType": "string",
              "name": "metadataURI",
              "type": "string"
            },
            {
              "internalType": "uint256",
              "name": "price",
              "type": "uint256"
            }
          ],
          "internalType": "struct ReflektorNFT.LetterAttributes[]",
          "name": "",
          "type": "tuple[]"
        }
      ],
      "stateMutability": "view",
      "type": "function"
    },
    {
      "inputs": [
        {
          "internalType": "uint256",
          "name": "tokenId",
          "type": "uint256"
        }
      ],
      "name": "getApproved",
      "outputs": [
        {
          "internalType": "address",
          "name": "",
          "type": "address"
        }
      ],
      "stateMutability": "view",
      "type": "function"
    },
    {
      "inputs": [
        {
          "internalType": "address",
          "name": "_owner",
          "type": "address"
        },
        {
          "internalType": "address",
          "name": "_operator",
          "type": "address"
        }
      ],
      "name": "isApprovedForAll",
      "outputs": [
        {
          "internalType": "bool",
          "name": "isOperator",
          "type": "bool"
        }
      ],
      "stateMutability": "view",
      "type": "function"
    },
    {
      "inputs": [
        {
          "internalType": "uint256",
          "name": "_letterIndex",
          "type": "uint256"
        }
      ],
      "name": "mint",
      "outputs": [],
      "stateMutability": "payable",
      "type": "function"
    },
    {
      "inputs": [],
      "name": "name",
      "outputs": [
        {
          "internalType": "string",
          "name": "",
          "type": "string"
        }
      ],
      "stateMutability": "view",
      "type": "function"
    },
    {
      "inputs": [
        {
          "internalType": "uint256",
          "name": "",
          "type": "uint256"
        }
      ],
      "name": "nftHolderAttributes",
      "outputs": [
        {
          "internalType": "uint256",
          "name": "letterIndex",
          "type": "uint256"
        },
        {
          "internalType": "uint256",
          "name": "tokenId",
          "type": "uint256"
        },
        {
          "internalType": "string",
          "name": "letter",
          "type": "string"
        },
        {
          "internalType": "string",
          "name": "metadataURI",
          "type": "string"
        },
        {
          "internalType": "uint256",
          "name": "price",
          "type": "uint256"
        }
      ],
      "stateMutability": "view",
      "type": "function"
    },
    {
      "inputs": [
        {
          "internalType": "address",
          "name": "",
          "type": "address"
        }
      ],
      "name": "nftHolders",
      "outputs": [
        {
          "internalType": "uint256",
          "name": "",
          "type": "uint256"
        }
      ],
      "stateMutability": "view",
      "type": "function"
    },
    {
      "inputs": [],
      "name": "owner",
      "outputs": [
        {
          "internalType": "address",
          "name": "",
          "type": "address"
        }
      ],
      "stateMutability": "view",
      "type": "function"
    },
    {
      "inputs": [
        {
          "internalType": "uint256",
          "name": "tokenId",
          "type": "uint256"
        }
      ],
      "name": "ownerOf",
      "outputs": [
        {
          "internalType": "address",
          "name": "",
          "type": "address"
        }
      ],
      "stateMutability": "view",
      "type": "function"
    },
    {
      "inputs": [],
      "name": "renounceOwnership",
      "outputs": [],
      "stateMutability": "nonpayable",
      "type": "function"
    },
    {
      "inputs": [
        {
          "internalType": "address",
          "name": "from",
          "type": "address"
        },
        {
          "internalType": "address",
          "name": "to",
          "type": "address"
        },
        {
          "internalType": "uint256",
          "name": "tokenId",
          "type": "uint256"
        }
      ],
      "name": "safeTransferFrom",
      "outputs": [],
      "stateMutability": "nonpayable",
      "type": "function"
    },
    {
      "inputs": [
        {
          "internalType": "address",
          "name": "from",
          "type": "address"
        },
        {
          "internalType": "address",
          "name": "to",
          "type": "address"
        },
        {
          "internalType": "uint256",
          "name": "tokenId",
          "type": "uint256"
        },
        {
          "internalType": "bytes",
          "name": "_data",
          "type": "bytes"
        }
      ],
      "name": "safeTransferFrom",
      "outputs": [],
      "stateMutability": "nonpayable",
      "type": "function"
    },
    {
      "inputs": [
        {
          "internalType": "address",
          "name": "operator",
          "type": "address"
        },
        {
          "internalType": "bool",
          "name": "approved",
          "type": "bool"
        }
      ],
      "name": "setApprovalForAll",
      "outputs": [],
      "stateMutability": "nonpayable",
      "type": "function"
    },
    {
      "inputs": [
        {
          "internalType": "bytes4",
          "name": "interfaceId",
          "type": "bytes4"
        }
      ],
      "name": "supportsInterface",
      "outputs": [
        {
          "internalType": "bool",
          "name": "",
          "type": "bool"
        }
      ],
      "stateMutability": "view",
      "type": "function"
    },
    {
      "inputs": [],
      "name": "symbol",
      "outputs": [
        {
          "internalType": "string",
          "name": "",
          "type": "string"
        }
      ],
      "stateMutability": "view",
      "type": "function"
    },
    {
      "inputs": [
        {
          "internalType": "uint256",
          "name": "_tokenId",
          "type": "uint256"
        }
      ],
      "name": "tokenURI",
      "outputs": [
        {
          "internalType": "string",
          "name": "",
          "type": "string"
        }
      ],
      "stateMutability": "view",
      "type": "function"
    },
    {
      "inputs": [
        {
          "internalType": "address",
          "name": "from",
          "type": "address"
        },
        {
          "internalType": "address",
          "name": "to",
          "type": "address"
        },
        {
          "internalType": "uint256",
          "name": "tokenId",
          "type": "uint256"
        }
      ],
      "name": "transferFrom",
      "outputs": [],
      "stateMutability": "nonpayable",
      "type": "function"
    },
    {
      "inputs": [
        {
          "internalType": "address",
          "name": "newOwner",
          "type": "address"
        }
      ],
      "name": "transferOwnership",
      "outputs": [],
      "stateMutability": "nonpayable",
      "type": "function"
    }
  ],
  "bytecode": "0x608060405266038d7ea4c680006007553480156200001c57600080fd5b506040516200460038038062004600833981810160405281019062000042919062000939565b6040518060400160405280600c81526020017f5265666c656b746f724e465400000000000000000000000000000000000000008152506040518060400160405280600481526020017f52464c4b000000000000000000000000000000000000000000000000000000008152508160009080519060200190620000c69291906200075a565b508060019080519060200190620000df9291906200075a565b50505062000102620000f6620004cf60201b60201c565b620004eb60201b60201c565b62000119600b620005b160201b620016581760201c565b60005b8251811015620004c65760006200013f600b620005c760201b6200166e1760201c565b905060086040518060a0016040528084815260200183815260200186858151811062000194577f4e487b7100000000000000000000000000000000000000000000000000000000600052603260045260246000fd5b6020026020010151815260200185878681518110620001dc577f4e487b7100000000000000000000000000000000000000000000000000000000600052603260045260246000fd5b6020026020010151604051602001620001f792919062000a5c565b60405160208183030381529060405281526020016007548152509080600181540180825580915050600190039060005260206000209060050201600090919091909150600082015181600001556020820151816001015560408201518160020190805190602001906200026c9291906200075a565b5060608201518160030190805190602001906200028b9291906200075a565b50608082015181600401555050600060088381548110620002d5577f4e487b7100000000000000000000000000000000000000000000000000000000600052603260045260246000fd5b90600052602060002090600502016040518060a00160405290816000820154815260200160018201548152602001600282018054620003149062000bd1565b80601f0160208091040260200160405190810160405280929190818152602001828054620003429062000bd1565b8015620003935780601f10620003675761010080835404028352916020019162000393565b820191906000526020600020905b8154815290600101906020018083116200037557829003601f168201915b50505050508152602001600382018054620003ae9062000bd1565b80601f0160208091040260200160405190810160405280929190818152602001828054620003dc9062000bd1565b80156200042d5780601f1062000401576101008083540402835291602001916200042d565b820191906000526020600020905b8154815290600101906020018083116200040f57829003601f168201915b505050505081526020016004820154815250509050620004976040518060400160405280601681526020017f6c6574746572202573202d3e20696e6465783a2025640000000000000000000081525082604001518360000151620005d560201b6200167c1760201c565b620004ae600b620005b160201b620016581760201c565b50508080620004bd9062000c3d565b9150506200011c565b50505062000d52565b6000620004e66200067e60201b6200171b1760201c565b905090565b6000600660009054906101000a900473ffffffffffffffffffffffffffffffffffffffff16905081600660006101000a81548173ffffffffffffffffffffffffffffffffffffffff021916908373ffffffffffffffffffffffffffffffffffffffff1602179055508173ffffffffffffffffffffffffffffffffffffffff168173ffffffffffffffffffffffffffffffffffffffff167f8be0079c531659141344cd1fd0a4f28419497f9722a3daafe3b4186f6b6457e060405160405180910390a35050565b6001816000016000828254019250508190555050565b600081600001549050919050565b62000679838383604051602401620005f09392919062000a91565b6040516020818303038152906040527ff362ca59000000000000000000000000000000000000000000000000000000007bffffffffffffffffffffffffffffffffffffffffffffffffffffffff19166020820180517bffffffffffffffffffffffffffffffffffffffffffffffffffffffff83818316178352505050506200073160201b60201c565b505050565b60003073ffffffffffffffffffffffffffffffffffffffff163373ffffffffffffffffffffffffffffffffffffffff1614156200072a57600080368080601f016020809104026020016040519081016040528093929190818152602001838380828437600081840152601f19601f820116905080830192505050505050509050600080369050905073ffffffffffffffffffffffffffffffffffffffff8183015116925050506200072e565b3390505b90565b60008151905060006a636f6e736f6c652e6c6f679050602083016000808483855afa5050505050565b828054620007689062000bd1565b90600052602060002090601f0160209004810192826200078c5760008555620007d8565b82601f10620007a757805160ff1916838001178555620007d8565b82800160010185558215620007d8579182015b82811115620007d7578251825591602001919060010190620007ba565b5b509050620007e79190620007eb565b5090565b5b8082111562000806576000816000905550600101620007ec565b5090565b6000620008216200081b8462000b05565b62000adc565b905080838252602082019050828560208602820111156200084157600080fd5b60005b858110156200089057815167ffffffffffffffff8111156200086557600080fd5b8086016200087489826200090c565b8552602085019450602084019350505060018101905062000844565b5050509392505050565b6000620008b1620008ab8462000b34565b62000adc565b905082815260208101848484011115620008ca57600080fd5b620008d784828562000b9b565b509392505050565b600082601f830112620008f157600080fd5b8151620009038482602086016200080a565b91505092915050565b600082601f8301126200091e57600080fd5b8151620009308482602086016200089a565b91505092915050565b600080604083850312156200094d57600080fd5b600083015167ffffffffffffffff8111156200096857600080fd5b6200097685828601620008df565b925050602083015167ffffffffffffffff8111156200099457600080fd5b620009a2858286016200090c565b9150509250929050565b6000620009b98262000b6a565b620009c5818562000b75565b9350620009d781856020860162000b9b565b620009e28162000d18565b840191505092915050565b6000620009fa8262000b6a565b62000a06818562000b86565b935062000a1881856020860162000b9b565b80840191505092915050565b600062000a3360058362000b86565b915062000a408262000d29565b600582019050919050565b62000a568162000b91565b82525050565b600062000a6a8285620009ed565b915062000a788284620009ed565b915062000a858262000a24565b91508190509392505050565b6000606082019050818103600083015262000aad8186620009ac565b9050818103602083015262000ac38185620009ac565b905062000ad4604083018462000a4b565b949350505050565b600062000ae862000afb565b905062000af6828262000c07565b919050565b6000604051905090565b600067ffffffffffffffff82111562000b235762000b2262000ce9565b5b602082029050602081019050919050565b600067ffffffffffffffff82111562000b525762000b5162000ce9565b5b62000b5d8262000d18565b9050602081019050919050565b600081519050919050565b600082825260208201905092915050565b600081905092915050565b6000819050919050565b60005b8381101562000bbb57808201518184015260208101905062000b9e565b8381111562000bcb576000848401525b50505050565b6000600282049050600182168062000bea57607f821691505b6020821081141562000c015762000c0062000cba565b5b50919050565b62000c128262000d18565b810181811067ffffffffffffffff8211171562000c345762000c3362000ce9565b5b80604052505050565b600062000c4a8262000b91565b91507fffffffffffffffffffffffffffffffffffffffffffffffffffffffffffffffff82141562000c805762000c7f62000c8b565b5b600182019050919050565b7f4e487b7100000000000000000000000000000000000000000000000000000000600052601160045260246000fd5b7f4e487b7100000000000000000000000000000000000000000000000000000000600052602260045260246000fd5b7f4e487b7100000000000000000000000000000000000000000000000000000000600052604160045260246000fd5b6000601f19601f8301169050919050565b7f2e6a736f6e000000000000000000000000000000000000000000000000000000600082015250565b61389e8062000d626000396000f3fe60806040526004361061012a5760003560e01c80638da5cb5b116100ab578063b88d4fde1161006f578063b88d4fde146103f9578063c770c3b814610422578063c87b56dd1461044d578063c8cf27f41461048a578063e985e9c5146104b5578063f2fde38b146104f25761012a565b80638da5cb5b1461031d57806395d89b411461034857806398da4c9514610373578063a0712d68146103b4578063a22cb465146103d05761012a565b806342842e0e116100f257806342842e0e146102265780636352211e1461024f57806370a082311461028c578063715018a6146102c95780637df124a1146102e05761012a565b806301ffc9a71461012f57806306fdde031461016c578063081812fc14610197578063095ea7b3146101d457806323b872dd146101fd575b600080fd5b34801561013b57600080fd5b50610156600480360381019061015191906127cf565b61051b565b6040516101639190612d81565b60405180910390f35b34801561017857600080fd5b506101816105fd565b60405161018e9190612d9c565b60405180910390f35b3480156101a357600080fd5b506101be60048036038101906101b99190612821565b61068f565b6040516101cb9190612cc1565b60405180910390f35b3480156101e057600080fd5b506101fb60048036038101906101f69190612793565b610714565b005b34801561020957600080fd5b50610224600480360381019061021f919061268d565b61082c565b005b34801561023257600080fd5b5061024d6004803603810190610248919061268d565b61088c565b005b34801561025b57600080fd5b5061027660048036038101906102719190612821565b6108ac565b6040516102839190612cc1565b60405180910390f35b34801561029857600080fd5b506102b360048036038101906102ae9190612628565b61095e565b6040516102c09190613043565b60405180910390f35b3480156102d557600080fd5b506102de610a16565b005b3480156102ec57600080fd5b5061030760048036038101906103029190612628565b610a9e565b6040516103149190613043565b60405180910390f35b34801561032957600080fd5b50610332610ab6565b60405161033f9190612cc1565b60405180910390f35b34801561035457600080fd5b5061035d610ae0565b60405161036a9190612d9c565b60405180910390f35b34801561037f57600080fd5b5061039a60048036038101906103959190612821565b610b72565b6040516103ab95949392919061305e565b60405180910390f35b6103ce60048036038101906103c99190612821565b610cb8565b005b3480156103dc57600080fd5b506103f760048036038101906103f29190612757565b610f99565b005b34801561040557600080fd5b50610420600480360381019061041b91906126dc565b610faf565b005b34801561042e57600080fd5b50610437611011565b6040516104449190612d5f565b60405180910390f35b34801561045957600080fd5b50610474600480360381019061046f9190612821565b6111b2565b6040516104819190612d9c565b60405180910390f35b34801561049657600080fd5b5061049f611325565b6040516104ac9190613021565b60405180910390f35b3480156104c157600080fd5b506104dc60048036038101906104d79190612651565b6114fa565b6040516104e99190612d81565b60405180910390f35b3480156104fe57600080fd5b5061051960048036038101906105149190612628565b611560565b005b60007f80ac58cd000000000000000000000000000000000000000000000000000000007bffffffffffffffffffffffffffffffffffffffffffffffffffffffff1916827bffffffffffffffffffffffffffffffffffffffffffffffffffffffff191614806105e657507f5b5e139f000000000000000000000000000000000000000000000000000000007bffffffffffffffffffffffffffffffffffffffffffffffffffffffff1916827bffffffffffffffffffffffffffffffffffffffffffffffffffffffff1916145b806105f657506105f5826117cc565b5b9050919050565b60606000805461060c906132d7565b80601f0160208091040260200160405190810160405280929190818152602001828054610638906132d7565b80156106855780601f1061065a57610100808354040283529160200191610685565b820191906000526020600020905b81548152906001019060200180831161066857829003601f168201915b5050505050905090565b600061069a82611836565b6106d9576040517f08c379a00000000000000000000000000000000000000000000000000000000081526004016106d090612f81565b60405180910390fd5b6004600083815260200190815260200160002060009054906101000a900473ffffffffffffffffffffffffffffffffffffffff169050919050565b600061071f826108ac565b90508073ffffffffffffffffffffffffffffffffffffffff168373ffffffffffffffffffffffffffffffffffffffff161415610790576040517f08c379a000000000000000000000000000000000000000000000000000000000815260040161078790612fe1565b60405180910390fd5b8073ffffffffffffffffffffffffffffffffffffffff166107af6118a2565b73ffffffffffffffffffffffffffffffffffffffff1614806107de57506107dd816107d86118a2565b6114fa565b5b61081d576040517f08c379a000000000000000000000000000000000000000000000000000000000815260040161081490612f01565b60405180910390fd5b61082783836118b1565b505050565b61083d6108376118a2565b8261196a565b61087c576040517f08c379a000000000000000000000000000000000000000000000000000000000815260040161087390613001565b60405180910390fd5b610887838383611a48565b505050565b6108a783838360405180602001604052806000815250610faf565b505050565b6000806002600084815260200190815260200160002060009054906101000a900473ffffffffffffffffffffffffffffffffffffffff169050600073ffffffffffffffffffffffffffffffffffffffff168173ffffffffffffffffffffffffffffffffffffffff161415610955576040517f08c379a000000000000000000000000000000000000000000000000000000000815260040161094c90612f41565b60405180910390fd5b80915050919050565b60008073ffffffffffffffffffffffffffffffffffffffff168273ffffffffffffffffffffffffffffffffffffffff1614156109cf576040517f08c379a00000000000000000000000000000000000000000000000000000000081526004016109c690612f21565b60405180910390fd5b600360008373ffffffffffffffffffffffffffffffffffffffff1673ffffffffffffffffffffffffffffffffffffffff168152602001908152602001600020549050919050565b610a1e6118a2565b73ffffffffffffffffffffffffffffffffffffffff16610a3c610ab6565b73ffffffffffffffffffffffffffffffffffffffff1614610a92576040517f08c379a0000000000000000000000000000000000000000000000000000000008152600401610a8990612fa1565b60405180910390fd5b610a9c6000611ca4565b565b600a6020528060005260406000206000915090505481565b6000600660009054906101000a900473ffffffffffffffffffffffffffffffffffffffff16905090565b606060018054610aef906132d7565b80601f0160208091040260200160405190810160405280929190818152602001828054610b1b906132d7565b8015610b685780601f10610b3d57610100808354040283529160200191610b68565b820191906000526020600020905b815481529060010190602001808311610b4b57829003601f168201915b5050505050905090565b6009602052806000526040600020600091509050806000015490806001015490806002018054610ba1906132d7565b80601f0160208091040260200160405190810160405280929190818152602001828054610bcd906132d7565b8015610c1a5780601f10610bef57610100808354040283529160200191610c1a565b820191906000526020600020905b815481529060010190602001808311610bfd57829003601f168201915b505050505090806003018054610c2f906132d7565b80601f0160208091040260200160405190810160405280929190818152602001828054610c5b906132d7565b8015610ca85780601f10610c7d57610100808354040283529160200191610ca8565b820191906000526020600020905b815481529060010190602001808311610c8b57829003601f168201915b5050505050908060040154905085565b600060088281548110610cf4577f4e487b7100000000000000000000000000000000000000000000000000000000600052603260045260246000fd5b90600052602060002090600502016040518060a00160405290816000820154815260200160018201548152602001600282018054610d31906132d7565b80601f0160208091040260200160405190810160405280929190818152602001828054610d5d906132d7565b8015610daa5780601f10610d7f57610100808354040283529160200191610daa565b820191906000526020600020905b815481529060010190602001808311610d8d57829003601f168201915b50505050508152602001600382018054610dc3906132d7565b80601f0160208091040260200160405190810160405280929190818152602001828054610def906132d7565b8015610e3c5780601f10610e1157610100808354040283529160200191610e3c565b820191906000526020600020905b815481529060010190602001808311610e1f57829003601f168201915b505050505081526020016004820154815250509050610e66610e5c6118a2565b8260200151611d6a565b80600960008360200151815260200190815260200160002060008201518160000155602082015181600101556040820151816002019080519060200190610eae929190612485565b506060820151816003019080519060200190610ecb929190612485565b5060808201518160040155905050610f006040518060600160405280602b815260200161383e602b9139826020015184611d88565b8060200151600a6000610f116118a2565b73ffffffffffffffffffffffffffffffffffffffff1673ffffffffffffffffffffffffffffffffffffffff168152602001908152602001600020819055507f10eaa71635447a85992a7c340977850ecda991a4d9b00b917dad4914ac4c8eed610f786118a2565b826020015184604051610f8d93929190612d28565b60405180910390a15050565b610fab610fa46118a2565b8383611e27565b5050565b610fc0610fba6118a2565b8361196a565b610fff576040517f08c379a0000000000000000000000000000000000000000000000000000000008152600401610ff690613001565b60405180910390fd5b61100b84848484611f94565b50505050565b60606008805480602002602001604051908101604052809291908181526020016000905b828210156111a957838290600052602060002090600502016040518060a0016040529081600082015481526020016001820154815260200160028201805461107c906132d7565b80601f01602080910402602001604051908101604052809291908181526020018280546110a8906132d7565b80156110f55780601f106110ca576101008083540402835291602001916110f5565b820191906000526020600020905b8154815290600101906020018083116110d857829003601f168201915b5050505050815260200160038201805461110e906132d7565b80601f016020809104026020016040519081016040528092919081815260200182805461113a906132d7565b80156111875780601f1061115c57610100808354040283529160200191611187565b820191906000526020600020905b81548152906001019060200180831161116a57829003601f168201915b5050505050815260200160048201548152505081526020019060010190611035565b50505050905090565b60606000600960008481526020019081526020016000206040518060a001604052908160008201548152602001600182015481526020016002820180546111f8906132d7565b80601f0160208091040260200160405190810160405280929190818152602001828054611224906132d7565b80156112715780601f1061124657610100808354040283529160200191611271565b820191906000526020600020905b81548152906001019060200180831161125457829003601f168201915b5050505050815260200160038201805461128a906132d7565b80601f01602080910402602001604051908101604052809291908181526020018280546112b6906132d7565b80156113035780601f106112d857610100808354040283529160200191611303565b820191906000526020600020905b8154815290600101906020018083116112e657829003601f168201915b5050505050815260200160048201548152505090508060600151915050919050565b61132d61250b565b6000600a600061133b6118a2565b73ffffffffffffffffffffffffffffffffffffffff1673ffffffffffffffffffffffffffffffffffffffff16815260200190815260200160002054905060008111156114e957600960008281526020019081526020016000206040518060a001604052908160008201548152602001600182015481526020016002820180546113c3906132d7565b80601f01602080910402602001604051908101604052809291908181526020018280546113ef906132d7565b801561143c5780601f106114115761010080835404028352916020019161143c565b820191906000526020600020905b81548152906001019060200180831161141f57829003601f168201915b50505050508152602001600382018054611455906132d7565b80601f0160208091040260200160405190810160405280929190818152602001828054611481906132d7565b80156114ce5780601f106114a3576101008083540402835291602001916114ce565b820191906000526020600020905b8154815290600101906020018083116114b157829003601f168201915b505050505081526020016004820154815250509150506114f7565b6114f161250b565b80925050505b90565b60007358807bad0b376efc12f5ad86aac70e78ed67deae73ffffffffffffffffffffffffffffffffffffffff168273ffffffffffffffffffffffffffffffffffffffff16141561154d576001905061155a565b6115578383611ff0565b90505b92915050565b6115686118a2565b73ffffffffffffffffffffffffffffffffffffffff16611586610ab6565b73ffffffffffffffffffffffffffffffffffffffff16146115dc576040517f08c379a00000000000000000000000000000000000000000000000000000000081526004016115d390612fa1565b60405180910390fd5b600073ffffffffffffffffffffffffffffffffffffffff168173ffffffffffffffffffffffffffffffffffffffff16141561164c576040517f08c379a000000000000000000000000000000000000000000000000000000000815260040161164390612e61565b60405180910390fd5b61165581611ca4565b50565b6001816000016000828254019250508190555050565b600081600001549050919050565b61171683838360405160240161169493929190612dbe565b6040516020818303038152906040527ff362ca59000000000000000000000000000000000000000000000000000000007bffffffffffffffffffffffffffffffffffffffffffffffffffffffff19166020820180517bffffffffffffffffffffffffffffffffffffffffffffffffffffffff8381831617835250505050612084565b505050565b60003073ffffffffffffffffffffffffffffffffffffffff163373ffffffffffffffffffffffffffffffffffffffff1614156117c557600080368080601f016020809104026020016040519081016040528093929190818152602001838380828437600081840152601f19601f820116905080830192505050505050509050600080369050905073ffffffffffffffffffffffffffffffffffffffff8183015116925050506117c9565b3390505b90565b60007f01ffc9a7000000000000000000000000000000000000000000000000000000007bffffffffffffffffffffffffffffffffffffffffffffffffffffffff1916827bffffffffffffffffffffffffffffffffffffffffffffffffffffffff1916149050919050565b60008073ffffffffffffffffffffffffffffffffffffffff166002600084815260200190815260200160002060009054906101000a900473ffffffffffffffffffffffffffffffffffffffff1673ffffffffffffffffffffffffffffffffffffffff1614159050919050565b60006118ac61171b565b905090565b816004600083815260200190815260200160002060006101000a81548173ffffffffffffffffffffffffffffffffffffffff021916908373ffffffffffffffffffffffffffffffffffffffff160217905550808273ffffffffffffffffffffffffffffffffffffffff16611924836108ac565b73ffffffffffffffffffffffffffffffffffffffff167f8c5be1e5ebec7d5bd14f71427d1e84f3dd0314c0f7b2291e5b200ac8c7c3b92560405160405180910390a45050565b600061197582611836565b6119b4576040517f08c379a00000000000000000000000000000000000000000000000000000000081526004016119ab90612ee1565b60405180910390fd5b60006119bf836108ac565b90508073ffffffffffffffffffffffffffffffffffffffff168473ffffffffffffffffffffffffffffffffffffffff161480611a2e57508373ffffffffffffffffffffffffffffffffffffffff16611a168461068f565b73ffffffffffffffffffffffffffffffffffffffff16145b80611a3f5750611a3e81856114fa565b5b91505092915050565b8273ffffffffffffffffffffffffffffffffffffffff16611a68826108ac565b73ffffffffffffffffffffffffffffffffffffffff1614611abe576040517f08c379a0000000000000000000000000000000000000000000000000000000008152600401611ab590612fc1565b60405180910390fd5b600073ffffffffffffffffffffffffffffffffffffffff168273ffffffffffffffffffffffffffffffffffffffff161415611b2e576040517f08c379a0000000000000000000000000000000000000000000000000000000008152600401611b2590612ea1565b60405180910390fd5b611b398383836120ad565b611b446000826118b1565b6001600360008573ffffffffffffffffffffffffffffffffffffffff1673ffffffffffffffffffffffffffffffffffffffff1681526020019081526020016000206000828254611b9491906131ed565b925050819055506001600360008473ffffffffffffffffffffffffffffffffffffffff1673ffffffffffffffffffffffffffffffffffffffff1681526020019081526020016000206000828254611beb9190613197565b92505081905550816002600083815260200190815260200160002060006101000a81548173ffffffffffffffffffffffffffffffffffffffff021916908373ffffffffffffffffffffffffffffffffffffffff160217905550808273ffffffffffffffffffffffffffffffffffffffff168473ffffffffffffffffffffffffffffffffffffffff167fddf252ad1be2c89b69c2b068fc378daa952ba7f163c4a11628f55a4df523b3ef60405160405180910390a4505050565b6000600660009054906101000a900473ffffffffffffffffffffffffffffffffffffffff16905081600660006101000a81548173ffffffffffffffffffffffffffffffffffffffff021916908373ffffffffffffffffffffffffffffffffffffffff1602179055508173ffffffffffffffffffffffffffffffffffffffff168173ffffffffffffffffffffffffffffffffffffffff167f8be0079c531659141344cd1fd0a4f28419497f9722a3daafe3b4186f6b6457e060405160405180910390a35050565b611d848282604051806020016040528060008152506120b2565b5050565b611e22838383604051602401611da093929190612e03565b6040516020818303038152906040527f969cdd03000000000000000000000000000000000000000000000000000000007bffffffffffffffffffffffffffffffffffffffffffffffffffffffff19166020820180517bffffffffffffffffffffffffffffffffffffffffffffffffffffffff8381831617835250505050612084565b505050565b8173ffffffffffffffffffffffffffffffffffffffff168373ffffffffffffffffffffffffffffffffffffffff161415611e96576040517f08c379a0000000000000000000000000000000000000000000000000000000008152600401611e8d90612ec1565b60405180910390fd5b80600560008573ffffffffffffffffffffffffffffffffffffffff1673ffffffffffffffffffffffffffffffffffffffff16815260200190815260200160002060008473ffffffffffffffffffffffffffffffffffffffff1673ffffffffffffffffffffffffffffffffffffffff16815260200190815260200160002060006101000a81548160ff0219169083151502179055508173ffffffffffffffffffffffffffffffffffffffff168373ffffffffffffffffffffffffffffffffffffffff167f17307eab39ab6107e8899845ad3d59bd9653f200f220920489ca2b5937696c3183604051611f879190612d81565b60405180910390a3505050565b611f9f848484611a48565b611fab8484848461210d565b611fea576040517f08c379a0000000000000000000000000000000000000000000000000000000008152600401611fe190612e41565b60405180910390fd5b50505050565b6000600560008473ffffffffffffffffffffffffffffffffffffffff1673ffffffffffffffffffffffffffffffffffffffff16815260200190815260200160002060008373ffffffffffffffffffffffffffffffffffffffff1673ffffffffffffffffffffffffffffffffffffffff16815260200190815260200160002060009054906101000a900460ff16905092915050565b60008151905060006a636f6e736f6c652e6c6f679050602083016000808483855afa5050505050565b505050565b6120bc83836122a4565b6120c9600084848461210d565b612108576040517f08c379a00000000000000000000000000000000000000000000000000000000081526004016120ff90612e41565b60405180910390fd5b505050565b600061212e8473ffffffffffffffffffffffffffffffffffffffff16612472565b15612297578373ffffffffffffffffffffffffffffffffffffffff1663150b7a026121576118a2565b8786866040518563ffffffff1660e01b81526004016121799493929190612cdc565b602060405180830381600087803b15801561219357600080fd5b505af19250505080156121c457506040513d601f19601f820116820180604052508101906121c191906127f8565b60015b612247573d80600081146121f4576040519150601f19603f3d011682016040523d82523d6000602084013e6121f9565b606091505b5060008151141561223f576040517f08c379a000000000000000000000000000000000000000000000000000000000815260040161223690612e41565b60405180910390fd5b805181602001fd5b63150b7a0260e01b7bffffffffffffffffffffffffffffffffffffffffffffffffffffffff1916817bffffffffffffffffffffffffffffffffffffffffffffffffffffffff19161491505061229c565b600190505b949350505050565b600073ffffffffffffffffffffffffffffffffffffffff168273ffffffffffffffffffffffffffffffffffffffff161415612314576040517f08c379a000000000000000000000000000000000000000000000000000000000815260040161230b90612f61565b60405180910390fd5b61231d81611836565b1561235d576040517f08c379a000000000000000000000000000000000000000000000000000000000815260040161235490612e81565b60405180910390fd5b612369600083836120ad565b6001600360008473ffffffffffffffffffffffffffffffffffffffff1673ffffffffffffffffffffffffffffffffffffffff16815260200190815260200160002060008282546123b99190613197565b92505081905550816002600083815260200190815260200160002060006101000a81548173ffffffffffffffffffffffffffffffffffffffff021916908373ffffffffffffffffffffffffffffffffffffffff160217905550808273ffffffffffffffffffffffffffffffffffffffff16600073ffffffffffffffffffffffffffffffffffffffff167fddf252ad1be2c89b69c2b068fc378daa952ba7f163c4a11628f55a4df523b3ef60405160405180910390a45050565b600080823b905060008111915050919050565b828054612491906132d7565b90600052602060002090601f0160209004810192826124b357600085556124fa565b82601f106124cc57805160ff19168380011785556124fa565b828001600101855582156124fa579182015b828111156124f95782518255916020019190600101906124de565b5b509050612507919061253a565b5090565b6040518060a0016040528060008152602001600081526020016060815260200160608152602001600081525090565b5b8082111561255357600081600090555060010161253b565b5090565b600061256a612565846130e4565b6130bf565b90508281526020810184848401111561258257600080fd5b61258d848285613295565b509392505050565b6000813590506125a4816137e1565b92915050565b6000813590506125b9816137f8565b92915050565b6000813590506125ce8161380f565b92915050565b6000815190506125e38161380f565b92915050565b600082601f8301126125fa57600080fd5b813561260a848260208601612557565b91505092915050565b60008135905061262281613826565b92915050565b60006020828403121561263a57600080fd5b600061264884828501612595565b91505092915050565b6000806040838503121561266457600080fd5b600061267285828601612595565b925050602061268385828601612595565b9150509250929050565b6000806000606084860312156126a257600080fd5b60006126b086828701612595565b93505060206126c186828701612595565b92505060406126d286828701612613565b9150509250925092565b600080600080608085870312156126f257600080fd5b600061270087828801612595565b945050602061271187828801612595565b935050604061272287828801612613565b925050606085013567ffffffffffffffff81111561273f57600080fd5b61274b878288016125e9565b91505092959194509250565b6000806040838503121561276a57600080fd5b600061277885828601612595565b9250506020612789858286016125aa565b9150509250929050565b600080604083850312156127a657600080fd5b60006127b485828601612595565b92505060206127c585828601612613565b9150509250929050565b6000602082840312156127e157600080fd5b60006127ef848285016125bf565b91505092915050565b60006020828403121561280a57600080fd5b6000612818848285016125d4565b91505092915050565b60006020828403121561283357600080fd5b600061284184828501612613565b91505092915050565b60006128568383612ba9565b905092915050565b61286781613221565b82525050565b600061287882613125565b6128828185613153565b93508360208202850161289485613115565b8060005b858110156128d057848403895281516128b1858261284a565b94506128bc83613146565b925060208a01995050600181019050612898565b50829750879550505050505092915050565b6128eb81613233565b82525050565b60006128fc82613130565b6129068185613164565b93506129168185602086016132a4565b61291f816133c7565b840191505092915050565b60006129358261313b565b61293f8185613175565b935061294f8185602086016132a4565b612958816133c7565b840191505092915050565b600061296e8261313b565b6129788185613186565b93506129888185602086016132a4565b612991816133c7565b840191505092915050565b60006129a9603283613186565b91506129b4826133d8565b604082019050919050565b60006129cc602683613186565b91506129d782613427565b604082019050919050565b60006129ef601c83613186565b91506129fa82613476565b602082019050919050565b6000612a12602483613186565b9150612a1d8261349f565b604082019050919050565b6000612a35601983613186565b9150612a40826134ee565b602082019050919050565b6000612a58602c83613186565b9150612a6382613517565b604082019050919050565b6000612a7b603883613186565b9150612a8682613566565b604082019050919050565b6000612a9e602a83613186565b9150612aa9826135b5565b604082019050919050565b6000612ac1602983613186565b9150612acc82613604565b604082019050919050565b6000612ae4602083613186565b9150612aef82613653565b602082019050919050565b6000612b07602c83613186565b9150612b128261367c565b604082019050919050565b6000612b2a602083613186565b9150612b35826136cb565b602082019050919050565b6000612b4d602983613186565b9150612b58826136f4565b604082019050919050565b6000612b70602183613186565b9150612b7b82613743565b604082019050919050565b6000612b93603183613186565b9150612b9e82613792565b604082019050919050565b600060a083016000830151612bc16000860182612ca3565b506020830151612bd46020860182612ca3565b5060408301518482036040860152612bec828261292a565b91505060608301518482036060860152612c06828261292a565b9150506080830151612c1b6080860182612ca3565b508091505092915050565b600060a083016000830151612c3e6000860182612ca3565b506020830151612c516020860182612ca3565b5060408301518482036040860152612c69828261292a565b91505060608301518482036060860152612c83828261292a565b9150506080830151612c986080860182612ca3565b508091505092915050565b612cac8161328b565b82525050565b612cbb8161328b565b82525050565b6000602082019050612cd6600083018461285e565b92915050565b6000608082019050612cf1600083018761285e565b612cfe602083018661285e565b612d0b6040830185612cb2565b8181036060830152612d1d81846128f1565b905095945050505050565b6000606082019050612d3d600083018661285e565b612d4a6020830185612cb2565b612d576040830184612cb2565b949350505050565b60006020820190508181036000830152612d79818461286d565b905092915050565b6000602082019050612d9660008301846128e2565b92915050565b60006020820190508181036000830152612db68184612963565b905092915050565b60006060820190508181036000830152612dd88186612963565b90508181036020830152612dec8185612963565b9050612dfb6040830184612cb2565b949350505050565b60006060820190508181036000830152612e1d8186612963565b9050612e2c6020830185612cb2565b612e396040830184612cb2565b949350505050565b60006020820190508181036000830152612e5a8161299c565b9050919050565b60006020820190508181036000830152612e7a816129bf565b9050919050565b60006020820190508181036000830152612e9a816129e2565b9050919050565b60006020820190508181036000830152612eba81612a05565b9050919050565b60006020820190508181036000830152612eda81612a28565b9050919050565b60006020820190508181036000830152612efa81612a4b565b9050919050565b60006020820190508181036000830152612f1a81612a6e565b9050919050565b60006020820190508181036000830152612f3a81612a91565b9050919050565b60006020820190508181036000830152612f5a81612ab4565b9050919050565b60006020820190508181036000830152612f7a81612ad7565b9050919050565b60006020820190508181036000830152612f9a81612afa565b9050919050565b60006020820190508181036000830152612fba81612b1d565b9050919050565b60006020820190508181036000830152612fda81612b40565b9050919050565b60006020820190508181036000830152612ffa81612b63565b9050919050565b6000602082019050818103600083015261301a81612b86565b9050919050565b6000602082019050818103600083015261303b8184612c26565b905092915050565b60006020820190506130586000830184612cb2565b92915050565b600060a0820190506130736000830188612cb2565b6130806020830187612cb2565b81810360408301526130928186612963565b905081810360608301526130a68185612963565b90506130b56080830184612cb2565b9695505050505050565b60006130c96130da565b90506130d58282613309565b919050565b6000604051905090565b600067ffffffffffffffff8211156130ff576130fe613398565b5b613108826133c7565b9050602081019050919050565b6000819050602082019050919050565b600081519050919050565b600081519050919050565b600081519050919050565b6000602082019050919050565b600082825260208201905092915050565b600082825260208201905092915050565b600082825260208201905092915050565b600082825260208201905092915050565b60006131a28261328b565b91506131ad8361328b565b9250827fffffffffffffffffffffffffffffffffffffffffffffffffffffffffffffffff038211156131e2576131e161333a565b5b828201905092915050565b60006131f88261328b565b91506132038361328b565b9250828210156132165761321561333a565b5b828203905092915050565b600061322c8261326b565b9050919050565b60008115159050919050565b60007fffffffff0000000000000000000000000000000000000000000000000000000082169050919050565b600073ffffffffffffffffffffffffffffffffffffffff82169050919050565b6000819050919050565b82818337600083830152505050565b60005b838110156132c25780820151818401526020810190506132a7565b838111156132d1576000848401525b50505050565b600060028204905060018216806132ef57607f821691505b6020821081141561330357613302613369565b5b50919050565b613312826133c7565b810181811067ffffffffffffffff8211171561333157613330613398565b5b80604052505050565b7f4e487b7100000000000000000000000000000000000000000000000000000000600052601160045260246000fd5b7f4e487b7100000000000000000000000000000000000000000000000000000000600052602260045260246000fd5b7f4e487b7100000000000000000000000000000000000000000000000000000000600052604160045260246000fd5b6000601f19601f8301169050919050565b7f4552433732313a207472616e7366657220746f206e6f6e20455243373231526560008201527f63656976657220696d706c656d656e7465720000000000000000000000000000602082015250565b7f4f776e61626c653a206e6577206f776e657220697320746865207a65726f206160008201527f6464726573730000000000000000000000000000000000000000000000000000602082015250565b7f4552433732313a20746f6b656e20616c7265616479206d696e74656400000000600082015250565b7f4552433732313a207472616e7366657220746f20746865207a65726f2061646460008201527f7265737300000000000000000000000000000000000000000000000000000000602082015250565b7f4552433732313a20617070726f766520746f2063616c6c657200000000000000600082015250565b7f4552433732313a206f70657261746f7220717565727920666f72206e6f6e657860008201527f697374656e7420746f6b656e0000000000000000000000000000000000000000602082015250565b7f4552433732313a20617070726f76652063616c6c6572206973206e6f74206f7760008201527f6e6572206e6f7220617070726f76656420666f7220616c6c0000000000000000602082015250565b7f4552433732313a2062616c616e636520717565727920666f7220746865207a6560008201527f726f206164647265737300000000000000000000000000000000000000000000602082015250565b7f4552433732313a206f776e657220717565727920666f72206e6f6e657869737460008201527f656e7420746f6b656e0000000000000000000000000000000000000000000000602082015250565b7f4552433732313a206d696e7420746f20746865207a65726f2061646472657373600082015250565b7f4552433732313a20617070726f76656420717565727920666f72206e6f6e657860008201527f697374656e7420746f6b656e0000000000000000000000000000000000000000602082015250565b7f4f776e61626c653a2063616c6c6572206973206e6f7420746865206f776e6572600082015250565b7f4552433732313a207472616e73666572206f6620746f6b656e2074686174206960008201527f73206e6f74206f776e0000000000000000000000000000000000000000000000602082015250565b7f4552433732313a20617070726f76616c20746f2063757272656e74206f776e6560008201527f7200000000000000000000000000000000000000000000000000000000000000602082015250565b7f4552433732313a207472616e736665722063616c6c6572206973206e6f74206f60008201527f776e6572206e6f7220617070726f766564000000000000000000000000000000602082015250565b6137ea81613221565b81146137f557600080fd5b50565b61380181613233565b811461380c57600080fd5b50565b6138188161323f565b811461382357600080fd5b50565b61382f8161328b565b811461383a57600080fd5b5056fe4d696e746564204e465420772f20746f6b656e496420257320616e64206c6574746572496e646578202573a26469706673582212206f7427a1acb9aa71ab449f2129c59461fcd4ea847563a75a981ae1c40bd48cba64736f6c63430008040033",
  "linkReferences": {},
  "deployedLinkReferences": {}
}